:10109400253032642D253032642D253032640043EE
:1010A40031312D25342E32660041552D2D2D25301C
:1010B400336400462D2D253564004C304E2D2534E7
:1010C4002E3266004C304E2D2D4C304E0032322DD7
:1010D40032322D32320031312D31312D3131002572
:0A10E4003032643132333435360007
:1014E0000840FFFFFFFFFFFFFFFF0329173B370403
:0514F0002201020309C6
:1012980012145312150B121550D2AF1213547B00AF
:1012A8007A0079291211427B007A00792275580454
:1012B8007F401211D97527047526AA12155E1213DC
:0912C800C8120B1F120F5B80F528
:03001B00020E943E
:100E9400C0E0C0F0C083C082C0D075D000C000C024
:100EA40001C002C003C004C005C006C007E53F245A
:100EB40001F53FE4353EF53EE4353DF53DE4353C92
:100EC400F53C052EE52E640A7002F52E052DE52D60
:100ED4007002052CFFAE2CBE0109BFF406752C0070
:100EE400752D000528E52864647002F5287B007AD6
:100EF400007940AD3712121D0537E53764087002DA
:100F0400F537AF26121531E47BE87A03F9F8AF3FE1
:100F1400AE3EAD3DAC3C12059CAC00AD01AE02AFA3
:100F240003E4FBFAF9F8C312063C7010AF8CEFAD82
:100F34008AF52FEDF530758C00758A00D007D00640
:100F4400D005D004D003D002D001D000D0D0D082BC
:070F5400D083D0F0D0E032A1
:100F5B00E52E6003021007752E01120D8D8F36E5FD
:100F6B003665495536F54885364924FB60261460AD
:100F7B001E24FC602914602124FC602724FE6028B9
:100F8B0024FE6029240C7040A20BB3920B803975A0
:100F9B0027068034752705802F75270B802A752728
:100FAB000A802575270F8020752711801B300A07B3
:100FBB0075273CC20A801175273DD20A853F3B85B8
:100FCB003E3A853D39853C38E54924EF7009E527E4
:100FDB0064117028D20922C3E53F953BFFE53E958E
:100FEB003AFEE53D9539FDE53C9538FCE47BC8FAC6
:0D0FFB00F9F8C312063C5002C20AC20922D6
:100B1F00E52D452C6003020C76F52C752D01E5278C
:100B2F0024FB605324FB7003020BDA14607224FC65
:100B3F007003020BEF24FE7003020C0024D5700328
:100B4F00020C36147003020C4124376003020C4C64
:100B5F007B007A0079291211947557FF755810751B
:100B6F005994755A0085295B755C00852A5D755E01
:100B7F0000852B5F020C34121354AC06AD07E41240
:100B8F0000C3E4FBFA798078411200218F5D8E5CFF
:100B9F008D5B8C5A7557FF7558107559A3020C341D
:100BAF007B007A0079227558047F401210EE75573A
:100BBF00FF755810755994755A0085235BAF227EC7
:100BCF00008E5C8F5D8E5E8F5F805A7F431213EDB8
:100BDF00755A008F5B7557FF7558107559AD804565
:100BEF007557FF7558107559B7852F5A85305B802B
:100BFF005B300928121354AC06AD07E41200C3E4AE
:100C0F00FBFA798078411200218F5D8E5C8D5B8CB1
:100C1F005A7557FF7558107559BE80097557FF756E
:100C2F0058107559C880257557FF7558107559D1CB
:100C3F00801A7557FF7558107559DA800F7557FF61
:100C4F007558107559E3755A0085275B7B007A003C
:100C5F00794A12070C7557007558007559407B007B
:080C6F007A00794A120C772289
:1013C800E5287020752801300B046326FF22AF271B
:1013D8007E00EF640670047526E722EF64054E7000
:0513E800037526C3227D
:0C155E007F237E337DB6DDFEDEFCDFFA6D
:01156A00225E
:10150B00538EBF53890F758B18758DFCC28FD28E7E
:03151B00D2AB222E
:0E1550005389F0438905E4F58AF58CD28C228C
:10151E00438E805389F0758A50758CFBC28DD28CA8
:03152E00D2A9221D
:10145300E4F580E5A0541F44A0F5A053A01F7580B8
:0D146300FFE5A0541F4480F5A053A01F22F8
:10153100EFF4F580E5A0541F4480F5A053A01F22CD
:10121D00A8057401088002C333D8FCF580E5A054FD
:10122D001F44C0F5A053A01FE4F580E5A0541F4452
:10123D00E0F5A053A01FAF058F827583001204FF48
:0E124D00F580E5A0541F44E0F5A053A01F2239
:060C77008B548A558956DA
:100C7D00E4F55BF55CD3E55B9407748094804003E9
:100C8D00020D8CAB54AA55A956855C827583001252
:100C9D0004FF12065D0D59200D542D0CEB300CF098
:100CAD00310CF5320CFA330CFF340D04350D0936C9
:100CBD000D0E370D13380D18390D1D410D22420D36
:100CCD0027430D2C440D31450D36460D3B480D4047
:100CDD004C0D454E0D4A500D4F5500000D59755A8E
:100CED00C0806C755AF98067755AA48062755AB0C8
:100CFD00805D755A998058755A928053755A8280C5
:100D0D004E755AF88049755A808044755A90803FC7
:100D1D00755A88803A755A838035755AC6803075F4
:100D2D005AA1802B755A868026755A8E8021755A48
:100D3D0089801C755AC78017755AC88012755A8CD0
:100D4D00800D755AC18008755ABF8003755AFF858D
:100D5D005C82758300A3AB54AA55A9561204FFB447
:100D6D002E05535A7F055CAB57AA58A959855B824E
:0F0D7D00758300E55A12053E055B055C020C828A
:010D8C002244
:1014C50020B0037F072220B1037F062220B2037FCD
:0B14D500052220B3037F04227F0022C9
:100D8D00D2B4D2B5D2C2C2C4E5B0540F7E00D2B433
:100D9D00D2B5D2C4C2C2C4F8540FC868FFEEC45451
:100DAD00F048FEE5B0540FFDEF4DD2B4D2C2D2C41F
:100DBD00C2B5C4F8540FC868FFEEC454F048FEE540
:100DCD00B0540FFDEF4DD2B5D2C2D2C4C2B4C4F8E7
:100DDD00540FC868FFEEC454F048FEE5B0540FFD43
:100DED00EF4DF4FFEEF4FEEF8EF01206830E890048
:100DFD00010E8400020E7F00040E7A00080E7500AD
:100E0D00100E7000200E6B00400E6600800E61010A
:100E1D00000E5C02000E5704000E5208000E4D101D
:100E2D00000E4820000E4340000E3E800000000ED4
:100E3D008E755404804E7554058049755406804452
:100E4D00755407803F755408803A7554098035757F
:100E5D00540A803075540B802B75540C80267554B4
:100E6D000D802175540E801C75540F80177554100C
:100E7D008012755411800D755412800875541380AD
:060E8D0003E4F554AF542C
:010E9300223C
:041435007F057E00B1
:10143900EF1FAA0670011E4A600FE4FDEDC3940C6C
:091449007480948050EA0D80F3D8
:011452002277
:02130600A90735
:10130800E4FBEBC39408748094805012C294E913F0
:101318009294121435D294E9C313F90B80E47F0533
:051328007E00021439F3
:10141200E4FBEBC39408748094805014C294ECC330
:1014220013FCD2943094034304801214350B80E2EF
:02143200AF0405
:011434002295
:10132D00C200D2947F0C7E00121439C2947F507E7D
:10133D0000121439D2947F0A7E00121439A29492AD
:06134D0000121435A2009D
:011353002277
:1013540012132D7FCC1213067F4412130612132D81
:101364007FCC1213067FBE121306121412A90712A1
:061374001412EFFEE9FF78
:01137A002250
:10148D00E4FEEEC3940874809480500FC297EF135E
:0B149D0092A3EFC313FFD2970E80E76D
:0114A8002221
:0814A90075F00A84E5F04EFD28
:1014B100C29300C29700D2930012148DAF0512148B
:0414C1008DC2932223
:10125B00E4FDC29300C29700D2930012148DE4FFF9
:10126B00EFC39408748094805011C297EDC313FDA3
:10127B0030A303430580D2970F80E5C29300C2973A
:0C128B0000D29700C2A300D2A300AF0560
:011297002234
:10114200E4FD7F8E1214B11204E6FF75F00A84C426
:1011520054F0FEEF7F841214A99000011204FFFFE5
:1011620075F00A84C454F0FEEF7F821214A9900035
:10117200021204FFFF75F00A84C454F0FEEF75F00A
:101182000A84E5F04EFD7F801214B17D807F8E02CD
:0211920014B196
:101194007F8512125BEFC4540F75F00AA4FEEF545E
:1011A4000F2E12052C7F8312125BEFC4540F75F0BF
:1011B4000AA4FEEF540F2E90000112053E7F811207
:1011C400125BEFC4540F75F00AA4FEEF540F2E9077
:0511D400000202053ECF
:04156B00D2A07F0586
:08156F0000AE071FEE70F92227
:0F154100D2A112156BC2A17F0512156FC2A02295
:0C157700C2A112156BD2A17F0502156FF6
:0212D100AD0767
:1012D300E4FCECC39408748094805024C2A07F057E
:1012E30012156FED30E704D2A18002C2A17F05126F
:1012F300156FD2A0ED25E0FD7F0512156F0C80D28E
:02130300C2A086
:0113050022C5
:1013A200E4FCECC3940874809480501712156BED22
:1013B20025E0FD30A103430501C2A07F0512156F90
:0513C2000C80DFAF0507
:0113C7002203
:0B1470001212D112147BAF031212D134
:10147B0012156BA2A1E433FDC2A07F0512156FAF4D
:01148B00055B
:01148C00223D
:10000300C2A0EF24FF92A17F0512156F12156BC2D8
:08001300A0D2A17F0502156FC8
:1011D9008F548B558A5689571215417FA01212D107
:1011E90012147BAF541212D112147BAF581558EF59
:1011F900601FAB550557E557AA567002055614F9F5
:101209001204E6FF1212D112147B7FC812156F80E7
:04121900DA02157769
:1014F600AB071215417F901212D112147B7F411255
:051506001470021577CE
:1010EE008F548B558A5689571215417FA01212D1F3
:1010FE0012147BAF541212D112147B1215417FA120
:10110E001212D112147BAF581558EF60241213A28D
:10111E00AB550557E557AA567002055614F9EF124E
:10112E00052CE5586004E4FF80027F011200038065
:04113E00D50215774A
:0213ED00AB074C
:1013EF001215417F901214701215417F911212D174
:1013FF0012147B1213A2AD077F011200031215778F
:02140F00AF0527
:0114110022B8
:10001E0002013BEC5D046005E859047003020131F6
:10002E001200FC580460F6EC4860F2EC7004FDFE21
:10003E00FF22C860DB2481C85009C39860025006B5
:10004E000201389850CAF582E9294B4A7005AB82F5
:10005E0002012775F0007C1A7880C3EF9BEE9AEDB3
:10006E0099400DC3EF9BFFEE9AFEED99FDE842F02D
:10007E00DC23ACF0D0E0FFD0E0FED0E0FDAB822080
:10008E00E7101BEB60BAEC2CFCEF33FFEE33FEED0A
:10009E0033FD020113E803F830E705C0F075F000F8
:1000AE00EF2FFFEE33FEED33FD40B830E7C280AAEE
:1000BE0075F020800E75F010800575F0087D007EBD
:1000CE00007F003392D530D50312062EEC3340104C
:1000DE00EF33FFEE33FEED33FDEC33FCD5F0ED22C6
:0E00EE00E5F0247EA2D513CC92E7CDCEFF2202
:1006B000E56B2457F8E6056B22785430070278572B
:1006C000E475F00112064D0204E62000EB7F2ED205
:1006D000008018EF540F2490D43440D4FF30040B22
:1006E000EF24BFB41A0050032461FFE56C600215CB
:1006F0006C056FE56F7002056E30070D7854E47578
:10070000F00112064DEF02052C02137B7403D20791
:100710008003E4C207F56B8B548A558956E4F56C67
:10072000F56EF56FE56C60077F201206EB80F575BE
:100730006DFFC201C200C202C203C205C206C208E6
:100740001206B9FF700D3007057F001206FCAF6F6F
:10075000AE6E22B4255FC2D5C2041206B9FF24D002
:10076000B40A00501A75F00A786C30D50508B6FF47
:100770000106C6A426F620D5047002D20380D9242F
:10078000CFB41A00EF5004C2E5D2040209E9D20145
:1007900080C6D20080C0D20280BCD2D580BAD20539
:1007A00080B47F201206EB2002077401B56C004074
:1007B000F11206B0FF1206EB020724D208D206801F
:1007C000951206B0FB1206B0FA1206B0F94A4B7049
:1007D0000679E07A0A7BFF20022EE56C602A7E0013
:1007E0008E827583001204FF60060EEE656D70F058
:1007F000C2D5EBC0E0EAC0E0E9C0E0EE120A49D0A1
:10080000E0F9D0E0FAD0E0FB1204E6FF60AAEBC00A
:10081000E0EAC0E0E9C0E01206EBD0E02401F9D044
:10082000E03400FAD0E0FBE56D0460DCD56DD980E2
:1008300087D20280A2120A2C60F7E56D70010412C3
:100840000146A96D600DE56D600914F56D120AD3BE
:10085000EF60F3EA30E702F404C3995077EAF42535
:100860006D0430E701E404F56D800D120A2C60C1BF
:10087000EA056D256D120146EA786AF630E701E473
:10088000256D04D56D0420050114120A49E4C0E069
:10089000120AD3786AE6601320E70714F61206D32B
:1008A000802204F6D0E014C0E07F001206D3E56D8C
:1008B00060071206CA156D800B3005031206CAD0F8
:1008C000E0020724D0E00480C5120A2C60A0E56D88
:1008D00004120146786AEAF6E56D2005026001041B
:0508E0002404120A4986
:1008E50074FF04C0E0120AD31206D3E56D20050299
:1008F50060031206CAD0E0B56DE87F451206DD78C3
:100905006AE67F2B30E7047F2DF404C0E01206EB86
:10091500D0E075F00A84C0F01206D4D0E01206D4F7
:10092500020724791080027908C206C2088008D21D
:10093500D5790A8004790AC2D5E56D047002F56D92
:10094500E4FAFDFEFF1206B0FC7B08200113120637
:10095500B0FD7B1030000A1206B0FE1206B0FF7B18
:1009650020EC3382D592D55013C3E43000069FFFA7
:10097500E49EFEE42001039DFDE49CFCE4CBF8C26B
:1009850001EC700CCFCECDCCE824F8F870F38017CD
:10099500C3EF33FFEE33FEED33FDEC33FCEB33FBFE
:1009A500994002FB0FD8E9EB300105F8D0E0C448C7
:1009B500B201C0E00AEC4D4E4F78207B0070C2EAD0
:1009C500B56D0040BCC0E0120A4BD0F0D0E020016C
:1009D50004C4C0E0C4B201C0F01206D4D0F0D5F012
:1009E500EB02072412065D07C15309285807924CEC
:1009F500078E42092C4F09344409344907A7430996
:100A05003A55086B4608C9450835470B0050079607
:100A15002D079A2E07BD2B079E2307BB200AE92A1F
:100A2500075648000007B5E56DB4FF03756D06125E
:100A350006B0FC1206B0FD1206B0FE1206B0FF7835
:100A450063020175790AA2D5200314300509B9108E
:100A5500020404B9080104A2D520060250010420AD
:100A650002689202B56C005034C0E07F2030031953
:100A75007F30A20272067205500F120AA2C202C28C
:100A850006C205C2087F30800F300503E9C0E012B9
:100A950006EB300503D0E0F9D0E0B56CCC30051796
:100AA5007F30B9100C1206EB7F583004077F788031
:100AB50003B908031206EB3002057F2D0206EB7F12
:100AC500202008F87F2B2006F322920280CF7F009A
:100AD500B4070050052463F8E6FF22286E756C6C98
:100AE5002900D2011206B03001F8C201786C30D568
:100AF5000108F60207562D504349581206B0240343
:100B0500B405004001E4900AFB931206DC743A1226
:0A0B150006DCD203756C0402092807
:1000FC00E9D2E7C933E833F892D5EDD2E7CD33EC4A
:07010C0033FC5002B2D522C2
:10011300EC30E7100FBF000C0EBE00080DBD00044D
:100123000BEB6014A2D5EB13FCED92E7FD2274FFF9
:10013300FCFDFEFF22E480F8A2D574FF13FC7D8052
:03014300E480EF66
:10014600F920E72824F950037907E4F42402FB1880
:10015600DBFDE624FB5014E9600DE4F618E604F630
:0F016600B40A08E4F6D9F57401F60A22C2D522CC
:10017500ED33EC3392D5FA602AB4FF33EDC2E77B59
:10018500FF60067A01799AE4227A0179A320D504E1
:100195007A01799E224E614E002B494E46002D492B
:1001A5004E4600E47A08F608DAFC7B00740722E87C
:1001B500C0E0ECC0E0EDC0E0EEC0E0EFC0E0EA7505
:1001C500F010A4CAABF075F04DA42BFBE435F0FCA0
:1001D500EA2410FAEB34C5FBEC34D9FCEDC2E7FF99
:1001E50075F056A4F42411C5F0F434C58FF0A42A93
:1001F500E5F03BE43CF620E7141204A6D0E0FFD07E
:10020500E0FED0E0FDD0E0FC1200218014F40412E1
:1002150004A6D0E0FFD0E0FED0E0FDD0E0FC120364
:1002250070D0E0F8E6FAEDD2E7CD33EC332482FB6B
:10023500E4C3CF33CFCE33CECD33CD33DBF37B0722
:1002450075F00A846004F6081B0AE5F0F6088FF0DD
:10025500740AA4FFACF08EF0740AA42CFEACF05026
:10026500010C8DF0740AA42CFDE435F0F608DBDEF4
:03027500740722E9
:10027800020131E86480F8E933E83360110460F082
:10028800ED33EC337009E8FCE9FDEAFEEBFF2204EC
:1002980060DED3EB9FEA9EE99DE8C2E78CF0C2F7E7
:1002A80095F0400CE8CCF8E9CDF9EACEFAEBCFFBB3
:1002B8001200FC85D0F05804700320D5B3E8047010
:1002C800075002B2D502013B92D5EC0460F7E4CCAA
:1002D800C0E0C398F8603B94186008400DD0E0FB7C
:1002E800020113E4FBFAC9FC8028E830E406E4C9FB
:1002F800FBE4CAFCE830E305E4C9CACBFCE85407D0
:100308006010F8C3E913F9EA13FAEB13FBEC13FCDA
:10031800D8F130F52FC3E49CFCEF9BFFEE9AFEED7D
:1003280099FDD0E0FBEF4E4D4C701222DB03020129
:1003380038EC2CFCEF33FFEE33FEED33FDED30E708
:10034800EB020113EF2BFFEE3AFEED39FDD0E0FB97
:1003580050130BBB000302013BED13FDEE13FEEF40
:0803680013FFEC13FC0201136A
:10037000EC4D6011E8497017ED33EC3304600DE487
:10038000FCFFFEFD22E933E8330470F8020131126C
:1003900000FC58046009E4CC24815006285009026E
:1003A000013B284003020138C0E0EB4A7044B980A9
:1003B00006D0E0FB020127EF4E701CBD8008EBFF6A
:1003C000EAFEE9FD80EBE98DF0A4FEE5F0020459B8
:1003D000E9CDF9EAFEEBFFEF89F0A4FCE5F0CE8968
:1003E000F0A42EFFE435F0CD89F0A42DFEE435F025
:1003F0008067EF4E7005BD80D780C3EF8BF0A4AC53
:10040000F0EE8BF0A42CFCE435F0F8EF8AF0A42C8D
:10041000E5F038FCE433CB8DF0A42CFCE5F03BF8A0
:10042000EE8AF0A42CFCE5F038F8E433CF89F0A490
:100430002CFCE5F038CF3400CE89F0A42FFFE5F096
:100440003EFEE433C98DF0A42EFEE5F039CD8AF0EE
:10045000A42FFFE5F03EFEE43DFD33D0E0FB500766
:100460000BBB000F02013BEC2CFCEF33FFEE33FE25
:06047000ED33FD02011353
:100476003F8000004120000042C80000447A00008E
:10048600461C400047C35000497424004B18968010
:100496004CBEBC205A0E1BCA6753C21C749DC5AE07
:1004A600FB60065407601C23231204D4EB54386007
:1004B600091204C01204CF120370ECF8EDF9EEFA3B
:1004C600EFCB22EB1204CF80F1543803241C9004A6
:1004D60076FE93FC0EEE93FD0EEE930ECE93FF2268
:03000000021008E3
:0C100800787FE4F6D8FD75816F02104F70
:1004E600BB010689828A83E0225002E722BBFE0214
:0904F600E32289828A83E4932247
:1004FF00BB010CE58229F582E5833AF583E02250B2
:10050F0006E92582F8E622BBFE06E92582F8E222FB
:0D051F00E58229F582E5833AF583E4932215
:10052C00BB010689828A83F0225002F722BBFE01AE
:02053C00F322A8
:10053E00F8BB010DE58229F582E5833AF583E8F0F3
:10054E00225006E92582C8F622BBFE05E92582C89F
:02055E00F22287
:1005600075F008758200EF2FFFEE33FECD33CDCC52
:1005700033CCC58233C5829BED9AEC99E5829840D5
:100580000CF582EE9BFEED9AFDEC99FC0FD5F0D6B2
:10059000E4CEFBE4CDFAE4CCF9A88222B800C1B9DC
:1005A0000059BA002DEC8BF084CFCECDFCE5F0CB1A
:1005B000F97818EF2FFFEE33FEED33FDEC33FCEB53
:1005C00033FB10D703994004EB99FB0FD8E5E4F90E
:1005D000FA227818EF2FFFEE33FEED33FDEC33FCFB
:1005E000C933C910D7059BE99A4007EC9BFCE99AEF
:1005F000F90FD8E0E4C9FAE4CCFB2275F010EF2F34
:10060000FFEE33FEED33FDCC33CCC833C810D70733
:100610009BEC9AE899400AED9BFDEC9AFCE899F86E
:0E0620000FD5F0DAE4CDFBE4CCFAE4C8F92201
:0E062E00C3E49FFFE49EFEE49DFDE49CFC22DD
:10063C00EB9FF5F0EA9E42F0E99D42F0E89C45F014
:01064C00228B
:10064D00FAE6FB0808E6F925F0F618E6CA3AF622AE
:10065D00D083D082F8E4937012740193700DA3A32C
:10066D0093F8740193F5828883E473740293686040
:06067D00EFA3A3A380DF40
:10068300D083D082F8E4937012740193700DA3A306
:1006930093F8740193F5828883E473740293B5F03D
:0D06A300067403936860E9A3A3A3A380D8A5
:10137B00EFB40A07740D121386740A309811A899EA
:10138B00B8130CC2983098FDA899C298B811F630D2
:07139B0099FDC299F59922AA
:10101400021298E493A3F8E493A34003F68001F248
:1010240008DFF48029E493A3F85407240CC8C333DD
:10103400C4540F4420C8834004F456800146F6DFAC
:10104400E4800B01020408102040809014E0E47E48
:10105400019360BCA3FF543F30E509541FFEE493A1
:10106400A360010ECF54C025E060A840B8E493A368
:10107400FAE493A3F8E493A3C8C582C8CAC583CA93
:10108400F0A3C8C582C8CAC583CADFE9DEE780BE4B
:0114F50000F6
:00000001FF
